:020000040000FA
:100000000C94A6010C948F0D0C94640D0C94390D76
:100010000C940E0D0C94E30C0C94B80C0C948D0CF9
:100020000C94620C0C94D7010C94D7010C94D7015A
:100030000C94D7010C94D7010C94D7010C94D701E0
:100040000C94D7010C94D7010C94D7010C94D701D0
:100050000C94D7010C94D7010C94D7010C94180C74
:100060000C94D7010C94E40D0C94BA0D0C94D701A8
:100070000C94D7010C94D7010C94D7010C94D701A0
:100080000C94D7010C94D7010C94D7010C94D70190
:100090000C94D7010C94D7010C94D7010C941A0E30
:1000A0000C94D7010C94D7010C94D7010C94D70170
:1000B0000C94D7010C94D7010C94D7010C94D70160
:1000C0000C94D7010C94D7010C94D7010C94D70150
:1000D0000C94D7010C94D7010C94D7010C94D70140
:1000E0000C94D701084AD73B3BCE016E84BCBFFDC0
:1000F000C12F3D6C74319ABD56833DDA3D00C77FF8
:1001000011BED9E4BB4C3E916BAAAABE0000008090
:100110003F000C94D9010C94A2030C94F8030C94A6
:10012000F9030C9433030C9459030C9426040C9497
:100130005D020C9435040C9488060C940C080C9405
:1001400054020C942E030C94AC030C94CC060C9427
:100150001D020C949F060C94E1040C94F7030C947C
:100160003D030C9458020C9427020C9432020C9418
:1001700057040C9449040C942B020C9442020C94E6
:10018000C0030C948E030C9498030C943C020C94C2
:1001900075030C9451030C9489060C94B6030C94CB
:1001A00098060C9446020C9461030C945E020C9425
:1001B00026030C943E0F0C944A020C947F030C947B
:1001C000FB060C942F020C940F080C948F040C94D3
:1001D00023020C9438020C9412080C9450020C94D4
:1001E0006B030C9462020C9447030C94F6034E418B
:1001F0004E494E495459494E46CDCCCC3D0AD723A1
:100200003C17B7D13877CC2B329595E6241FB14FE8
:100210000A000020410000C84200401C4620BCBE2D
:100220004CCA1B0E5AAEC59D740000210024002745
:10023000002A002D003000330001010000040107F6
:10024000010A0100002200250028002B002E0031A9
:1002500000340002010000050108010B010000202C
:10026000002300260029002C002F0032000001008E
:100270000003010601090105050505070508080831
:1002800008020202020A0A08080404040401010127
:10029000010101010103030303030303030407072F
:1002A000070C0C0C0C0C0C0C0C02020202060606CD
:1002B00006060606060B0B0B0B0B0B0B0B010210B5
:1002C0002020080810204010204080020102010870
:1002D0000402010102040810204080804020100820
:1002E0000402018004020180402010080402010879
:1002F00004020101020408102040800102040810D9
:1003000020408000000A0B02090C0D0E08070304B0
:1003100001000000000000000000000000000000DC
:1003200000000000000000000000000000000012BB
:10033000111000000000000000000000000000009C
:10034000000000000000000000003E0F11241FBE4E
:10035000CFEFD1E2DEBFCDBF00E00CBF25E0A8E3C8
:10036000B3E001C01D92A538B207E1F713E0A0E0A9
:10037000B2E0E8E8FAE300E00BBF02C007900D929C
:10038000A833B107D9F711E0C6EAD1E000E006C012
:1003900021970109802FFE010E94291DC53AD1072E
:1003A00080E00807A9F70E94770F0C94421D0C9477
:1003B000000090916304809162042FEF3FEF981743
:1003C00048F4E92FF0E0EE5BFB4F208130E09F5FC7
:1003D00090936304C901089590916304809162042D
:1003E0002FEF3FEF981748F4E92FF0E0EE5BFB4F5B
:1003F000208130E09F5F90936304C901089581508C
:10040000823108F05AC0E82FF0E08827E55FFD4F01
:100410008F4F0C94291D2B022F021D02230227024D
:100420005D02320238023C02420246024A02500297
:1004300054025D0258025E026202809180008F7752
:10044000809380000895809180008F7DF9CF809106
:100450008000877FF5CF84B58F7784BD089584B5FC
:100460008F7DFBCF8091B0008F778093B00008958F
:100470008091B0008F7DF9CF809190008F7780932D
:1004800090000895809190008F7DF9CF8091900029
:10049000877FF5CF8091A0008F778093A00008958B
:1004A0008091A0008F7DF9CF8091A000877FF5CF4C
:1004B000809120018F778093200108958091200101
:1004C0008F7DF9CF80912001877FF5CFCF93DF9388
:1004D000282F30E0F901ED5FFC4F8491F901E354DE
:1004E000FD4FD491F901E958FD4FC491CC23A1F0FF
:1004F00081110E94FF01EC2FF0E0EE0FFF1FE35A85
:10050000FD4FA591B491EC91ED2381E090E009F4C9
:1005100080E0DF91CF91089580E090E0FACF1F93C3
:10052000CF93DF93282F30E0F901ED5FFC4F8491EA
:10053000F901E354FD4FD491F901E958FD4FC491FD
:10054000CC23A9F0162F81110E94FF01EC2FF0E0BF
:10055000EE0FFF1FED5BFD4FA591B4918FB7F8949F
:10056000EC91111108C0D095DE23DC938FBFDF9191
:10057000CF911F910895DE2BF8CFCF93DF9390E0BA
:10058000FC01E354FD4F249189589D4FFC01849157
:100590008823D1F090E0880F991FFC01E75DFD4FA3
:1005A000A591B491FC01ED5BFD4FC591D4916230F2
:1005B00071F49FB7F8943C91822F809583238C939C
:1005C000E8812E2B28839FBFDF91CF9108958FB7AD
:1005D000F894EC912E2B2C938FBFF6CF1F93CF93D3
:1005E000DF93182FEB0161E00E94BD02209739F4E0
:1005F00060E0812FDF91CF911F910C948F02CF3F4C
:10060000D10511F461E0F5CFE12FF0E0ED5FFC4F93
:10061000E491E150E23108F0B3C0F0E08827EC5EED
:10062000FC4F8F4F0C94291D26032E0333033D03EB
:100630004703C0035103590361036B0375037F0331
:100640008E039803C003A203AC03B60384B580688D
:1006500084BDC7BDDF91CF911F91089584B580629D
:1006600084BDC8BDF7CF80918000806880938000F2
:10067000D0938900C0938800EDCF80918000806284
:1006800080938000D0938B00C0938A00E3CF809149
:100690008000886080938000D0938D00C0938C0090
:1006A000D9CF8091B00080688093B000C093B30030
:1006B000D1CF8091B00080628093B000C093B4002D
:1006C000C9CF80919000806880939000D09399006A
:1006D000C0939800BFCF809190008062809390007B
:1006E000D0939B00C0939A00B5CF80919000886012
:1006F00080939000D0939D00C0939C00ABCF8091DD
:10070000A00080688093A0008091A0008F7B8093E0
:10071000A000D093A900C093A8009CCF8091A00016
:1007200080628093A000D093AB00C093AA0092CFC8
:100730008091A00088608093A000D093AD00C0930A
:10074000AC0088CF80912001806880932001D093F5
:100750002901C09328017ECF80912001806280937F
:100760002001D0932B01C0932A0174CF80912001E6
:10077000886080932001D0932D01C0932C016ACF13
:10078000C038D1050CF03ECF33CF3FB7F8948091FD
:100790003E0490913F04A0914004B091410426B5DD
:1007A000A89B05C02F3F19F00196A11DB11D3FBFA9
:1007B000BA2FA92F982F8827BC01CD01620F711D78
:1007C000811D911D42E0660F771F881F991F4A9572
:1007D000D1F708952FB7F89460913A0470913B04D3
:1007E00080913C0490913D042FBF08950895089591
:1007F0000895AF92BF92CF92DF92EF92FF920F9344
:100800001F93CF93DF936C017B018B01040F151FA6
:10081000EB015E01AE18BF08C017D10759F069910E
:10082000D601ED91FC910190F081E02DC601199562
:10083000892B79F7C501DF91CF911F910F91FF901F
:10084000EF90DF90CF90BF90AF900895FC01538D53
:10085000448D252F30E0842F90E0821B930B54179A
:1008600010F0CF96089501970895FC01918D828D27
:10087000981761F0A28DAE0FBF2FB11D5D968C91C0
:10088000928D9F5F9F73928F90E008958FEF9FEFFF
:100890000895FC01918D828D981731F0828DE80FBB
:1008A000F11D858D90E008958FEF9FEF0895FC0175
:1008B000918D228D892F90E0805C9F4F821B910942
:1008C0008F739927089588ED94E00E94570421E0E2
:1008D000892B09F420E0822F0895FC01A48DA80F34
:1008E000B92FB11DA35ABF4F2C91848D90E0019672
:1008F0008F739927848FA689B7892C93A089B18992
:100900008C91837080648C93938D848D981306C032
:100910000288F389E02D80818F7D80830895EF9296
:10092000FF920F931F93CF93DF93EC0181E0888FA9
:100930009B8D8C8D98131AC0E889F989808185FF79
:1009400015C09FB7F894EE89FF896083E889F9891B
:1009500080818370806480839FBF81E090E0DF911D
:10096000CF911F910F91FF90EF900895F62E0B8D70
:1009700010E00F5F1F4F0F731127E02E8C8D8E112B
:100980000CC00FB607FCFACFE889F989808185FF92
:10099000F5CFCE010E946D04F1CFEB8DEC0FFD2F52
:1009A000F11DE35AFF4FF0829FB7F8940B8FEA894D
:1009B000FB8980818062CFCF682F88ED94E00C9412
:1009C0008F04CF93DF93EC01888D8823B9F0AA8937
:1009D000BB89E889F9898C9185FD03C0808186FDFA
:1009E0000DC00FB607FCF7CF8C9185FFF2CF808149
:1009F00085FFEDCFCE010E946D04E9CFDF91CF914D
:100A0000089580E090E0892B29F00E946304811111
:100A10000E94000080E090E0892B49F080E090E0A7
:100A2000892B29F00E94000081110E94000080E0C3
:100A300090E0892B49F080E090E0892B29F00E941A
:100A4000000081110E94000080E090E0892B49F0B5
:100A500080E090E0892B29F00E94000081110C9425
:100A60000000089520915E03260F3327331F2132A3
:100A70003105ECF420918A04FC0190E080E0243000
:100A800069F082E00895A0915E032191AC01425C7F
:100A90005C4FA40FB52FB11D2C930196861798F3C8
:100AA00080915E03680F60935E0380E0089581E0AB
:100AB000089510928A0481E080938904109264045E
:100AC00061E084E10E948F0261E085E10E948F0273
:100AD000E9EBF0E080818E7F808380818D7F808351
:100AE00088E48093B80085E48093BC000895CF9398
:100AF000DF9391E090933D038823B9F0C091B80053
:100B0000D091BA008091BC008A7B8093BC0060E0E9
:100B100084E10E948F0260E085E10E948F020E94C2
:100B20005905D093BA00C093B800DF91CF910895D2
:100B30008F929F92AF92BF92CF92DF92EF92FF92ED
:100B40000F931F93CF93DF93D091B304D13208F06A
:100B5000D7C0182FC091B2040E94C5036B017C015D
:100B600080918A0481116BC082E080938A04109383
:100B700089048FEF8093880410928704D0938604B1
:100B8000A2E9B4E0E6E6F4E080E0D81391C0109268
:100B9000650480916504CC0FC82BC09365048091D7
:100BA0006404813009F088C0109264040E94C50377
:100BB0006B017C01809165048093BB0080918C0463
:100BC00090918D04A0918E04B0918F04892B8A2B73
:100BD0008B2BA1F00E94C50300918C0410918D0411
:100BE00020918E0430918F046C197D098E099F0924
:100BF000061717072807390708F442C08091BC0080
:100C000083FDD8CF85EC8093BC000E94C5036B01A7
:100C10007C0180918A04823009F450C0809188045C
:100C20008F3F09F46FC080918804803209F46CC052
:100C300080918804803309F469C084E026C08091E3
:100C40008C0490918D04A0918E04B0918F04892B17
:100C50008A2B8B2B09F484CF0E94C50380908C04CF
:100C600090908D04A0908E04B0908F046C197D0933
:100C70008E099F0986169706A806B90608F070CF58
:100C800080918B040E94770585E010929104109268
:100C9000B30410929004DF91CF911F910F91FF90B8
:100CA000EF90DF90CF90BF90AF909F908F9008957E
:100CB0009D9191938F5F69CF85EEA5CF80918C0434
:100CC00090918D04A0918E04B0918F04892B8A2B72
:100CD0008B2B09F49ECF0E94C50300918C041091C8
:100CE0008D0420918E0430918F046C197D098E093A
:100CF0009F09061717072807390708F08ACFC0CFC2
:100D000081E0C3CF80E0C1CF82E0BFCF83E0BDCF21
:100D10000895E091630480916204E81730F4F0E0F4
:100D2000EE5BFB4F808190E008958FEF9FEF089579
:100D30008091620490916304891B990B0895CF926E
:100D4000DF92EF92FF920F931F93CF93DF937C017B
:100D5000CB018A0120919004222389F0EB016B01E1
:100D6000C40ED51ECC15DD0569F06991D701ED9152
:100D7000FC910190F081E02DC7011995F3CF642F0C
:100D80000E943205C801DF91CF911F910F91FF9012
:100D9000EF90DF90CF900895CF93DF931F92CDB760
:100DA000DEB76983209190042223F9F02091B304E7
:100DB000203258F021E030E0FC013383228390E0C0
:100DC00080E00F90DF91CF91089580919104E82FFA
:100DD000F0E0EE56FB4F998190838F5F80939104F2
:100DE0008093B30481E090E0ECCF61E0CE01019606
:100DF0000E943205F7CF90E080E00895CF93DF9313
:100E000070E060E085E00E94EE02C9E1D4E0188263
:100E100070E060E086E00E94EE02198270E060E01F
:100E200087E00E94EE021A8270E060E088E00E9493
:100E3000EE0260E081E20E948F021092B404DF9122
:100E4000CF910895CF93DF93C0911704C33058F02A
:100E50000E94FE0681E08093890382E0809338043B
:100E6000DF91CF9108950E94FE06D0E0FE01EB5A7B
:100E7000FD4F60E080810E948F020E94EA03609330
:100E80000B0470930C0480930D0490930E046093F4
:100E90000F04709310048093110490931204F8943B
:100EA000CC0FDD1FCC0FDD1FC453DB4F8881998130
:100EB000AA81BB8178948093130490931404A09327
:100EC0001504B0931604E0911704F0E0EE5AFD4FBC
:100ED00066E470E08081DF91CF910C94EE020E9475
:100EE000FE061092380380918903811182E080937D
:100EF00038040895CF93C82F0E94FE06C09338038C
:100F000085E080933804CF910895CF93DF93C4E1B7
:100F1000D2E06991799189919991282F220F292FF7
:100F2000221F2F3F69F120E030E0A9010E946519DE
:100F3000181634F588859985AA85BB858A2F880F70
:100F40008B2F881F8F3FE1F08C899D89AE89BF89E7
:100F50008A2F880F8B2F881F8F3F91F082E0C0323D
:100F6000D807B9F681E040911002509111026091CA
:100F7000120270911302453456456544724509F0DA
:100F800080E0DF91CF9108950F931F93CF93DF936C
:100F9000C82FD0E0FE01E15BFD4F80810E94660218
:100FA0008C01FE01E45BFD4F80810E946602AC0172
:100FB000CC0FDD1FCC0FDD1FFE01E453FB4F808102
:100FC0009181A281B38131E0012B09F430E021E06D
:100FD000452B09F420E04FEF5FEFBA01321304C054
:100FE00041E050E060E070E0840F951FA61FB71F3E
:100FF000FE01E453FB4F80839183A283B3830E945D
:10100000EA03C45EDB4F688379838A839B83DF9125
:10101000CF911F910F91089580E00C94C40781E057
:101020000C94C40782E00C94C4073F924F925F92E5
:101030006F927F928F929F92AF92BF92CF92DF92E8
:10104000EF92FF920F931F93CF93DF9300D01F92E5
:10105000CDB7DEB7082F4A015B010E948507182F24
:1010600081111AC082E00E947A07812F0F900F90A1
:101070000F900F90DF91CF911F910F91FF90EF9004
:10108000DF90CF90BF90AF909F908F907F906F90A8
:101090005F904F903F900895202F30E03A8329834E
:1010A00079013FEFE31AF30AF701EE0FFF1FEE0F8E
:1010B000FF1FE05FFD4F2081318142815381C501D7
:1010C000B4010E94CB190E94701C2B013C014114F9
:1010D00051046104710489F420E030E0A901C501E4
:1010E000B4010E94631C44244A94542C3201181603
:1010F00024F4412C512C32014394F89489819A8133
:10110000880F991F880F991FAC0144535B4F5A01F8
:10111000DA016D917D918D919C917894640D751D8E
:10112000861D971D0E946C19F701EE0FFF1FEE0F31
:10113000FF1FE05FFD4F20813181428153810E947A
:101140009B1B6B017C0120E030E0A9010E94651926
:1011500087FD0AC020E030E048EC52E4C701B60148
:101160000E94631C18162CF488E00E947A0710E095
:101170007CCF033008F079CFF894F501C080D1809E
:10118000E280F380789414141504160417040CF00C
:101190005CC00E94FE063324339461E029813A81C9
:1011A0002B5A3D4FD9018C910E948F02A3019201CD
:1011B0002C0D3D1D4E1D5F1D29833A834B835C839F
:1011C0000E94EA032B013C010E94EA034B015C01EF
:1011D0000E94EA0321E02093B4040093B504309206
:1011E000B604C092B704D092B804E092B904F09269
:1011F000BA0429813A814B815C812093BB043093EE
:10120000BC044093BD045093BE044092C00450926D
:10121000C1046092C2047092C3048092C40490928C
:10122000C504A092C604B092C7046C597F4F8F4F7B
:101230009F4F6093C8047093C9048093CA0490932D
:10124000CB0489E68093BF0410CF0E94FE063324AE
:101250003A9460E0A3CF3F924F925F926F927F9259
:101260008F929F92AF92BF92CF92DF92EF92FF92B6
:101270000F931F93CF93DF9380911804882309F471
:101280005DC08091B404811159C0809138048530CB
:1012900009F454C004E112E0D0E0C0E093E0392E3C
:1012A000C12CD12C7601409085035090860360902C
:1012B000870370908803F894FE01EE0FFF1FEE0F76
:1012C000FF1FE453FB4F6081718182819381789489
:1012D000F80181909190A190B1908F010E946C19BA
:1012E000A50194010E949B1B9B01AC01C301B201AB
:1012F0000E94BC1A4B015C019F77A70196015F77A2
:101300000E94631C18161CF4750164013C2E219682
:10131000C330D10541F6F3E03F1659F02DEC3CEC1B
:101320004CE45DE3C701B6019F770E94651918166A
:10133000BCF01092180482E080933804DF91CF91C2
:101340001F910F91FF90EF90DF90CF90BF90AF90E3
:101350009F908F907F906F905F904F903F900895F7
:10136000B701A601832DDF91CF911F910F91FF90BF
:10137000EF90DF90CF90BF90AF909F908F907F9035
:101380006F905F904F903F900C941508FC01019076
:101390000020E9F73197AF01481B590BBC0188EDDC
:1013A00094E00C94F9038F929F92AF92BF920F93A7
:1013B0001F93CF93DF93CDB7DEB7A1970FB6F89405
:1013C000DEBF0FBECDBF19A2423008F44AE08E0145
:1013D0000F5D1F4F842E912CB12CA12CA5019401DF
:1013E0000E94071DE62FB901CA01EA30F4F4E05D5E
:1013F000D801EE938D01232B242B252B79F790E038
:1014000080E0109719F0CD010E94C609A1960FB691
:10141000F894DEBF0FBECDBFDF91CF911F910F912A
:10142000BF90AF909F908F900895E95CE1CFCF92ED
:10143000DF92EF92FF92CF93DF9397FF19C06B017A
:101440007C018DE20E94DC04EC0166277727CB014A
:101450006C197D098E099F094AE00E94D3098C0FFF
:101460009D1FDF91CF91FF90EF90DF90CF90089577
:101470004AE0DF91CF91FF90EF90DF90CF900C94F6
:10148000D3094F925F926F927F928F929F92AF9209
:10149000BF92CF92DF92EF92FF920F931F93CF9361
:1014A0006B017C01742EAC019B010E94ED1C882312
:1014B00099F08CE792E0CF911F910F91FF90EF9000
:1014C000DF90CF90BF90AF909F908F907F906F9064
:1014D0005F904F900C94C60946015701E894B7F805
:1014E0002FEF3FEF4FE75FE7C501B4010E94ED1C0E
:1014F00081110DC02FEF3FEF4FE75FE7C501B4014A
:101500000E94651918161CF480E892E0D4CF2FEFE2
:101510003FEF4FE75FE4C701B6010E94631C181656
:101520001CF484E892E0C7CF2FEF3FEF4FE75FEC6A
:10153000C701B6010E94651987FDF3CF20E030E0B6
:10154000A901C701B6010E94651910E000E087FFFC
:1015500008C08DE20E94DC048C01F7FAF094F7F8E1
:10156000F094C0E060E070E080E09FE37C1641F022
:1015700020E030E040E251E40E949B1BCF5FF6CFB9
:10158000A70196010E94BD1A2B013C010E940D1C6F
:101590004B015C014AE00E94D3097C01E00EF11E80
:1015A000CC23B1F1C501B4010E946A199B01AC01C1
:1015B000C301B2010E94BC1A4B015C018EE20E9481
:1015C000DC04E80EF91EC15018F120E030E040E2E2
:1015D00051E4C501B4010E94CB192B013C010E94CA
:1015E0000D1C4B01B12CA12C4AE0C501B4010E9495
:1015F000D309E80EF91EC501B4010E946A199B01C6
:10160000AC01C301B2010E94BC1A4B015C01DBCFEB
:10161000C701CF911F910F91FF90EF90DF90CF9076
:10162000BF90AF909F908F907F906F905F904F9002
:101630000895CF92DF92EF92FF920F931F93CF9373
:10164000DF930E94EA030091390310913A0320913D
:101650003B0330913C036B017C01C01AD10AE20AC2
:10166000F30A97018601043611052105310508F4B6
:101670009EC06093390370933A0380933B03909329
:101680003C034AE00E94D3098CE20E94DC04E09112
:101690003804E63008F085C0F0E0EE0FFF1FE05C94
:1016A000FD4F80819181009711F00E94C6098CE264
:1016B0000E94DC0460913004709131048091320406
:1016C0009091330443E00E94410A8CE20E94DC04C2
:1016D00060912C0470912D0480912E0490912F0420
:1016E00043E00E94410AD0E0C0E08CE20E94DC04AA
:1016F000F894FE01EE0FFF1FEE0FFF1FE453FB4FA8
:10170000608171818281938178940E94170A219669
:10171000C330D10551F7C0E08CE20E94DC04809117
:10172000B5048C1307C08091B4046091BF0470E0CD
:10173000811102C070E060E0072E000C880B990B4D
:101740000E94170A8CE20E94DC048091B5048C137D
:101750002BC08091B404882339F16091B604062E21
:10176000000C770B072E000C880B990B0E94170AB0
:10177000CF5FC33089F68CE20E94DC0460913803AD
:1017800070E090E080E00E94170A80E992E0DF912B
:10179000CF911F910F91FF90EF90DF90CF900C941D
:1017A000C60988E892E081CF70E060E0DBCFDF918E
:1017B000CF911F910F91FF90EF90DF90CF90089500
:1017C00085ED8093BC0080918C0490918D04A09154
:1017D0008E04B0918F040796A11DB11D23E0B6952C
:1017E000A795979587952A95D1F72091BC0024FD60
:1017F00003C010928A04089540918C0450918D0486
:1018000060918E0470918F04452B462B472B69F312
:101810000097A105B10541F02AE22A95F1F700C031
:101820000197A109B109E1CF80918B040C94770550
:101830001F920F920FB60F9211242F933F938F9305
:101840009F93AF93BF9380913A0490913B04A091F2
:101850003C04B0913D043091390423E0230F2D372F
:1018600058F50196A11DB11D2093390480933A04C7
:1018700090933B04A0933C04B0933D0480913E04BC
:1018800090913F04A0914004B09141040196A11DA4
:10189000B11D80933E0490933F04A0934004B09305
:1018A0004104BF91AF919F918F913F912F910F90E4
:1018B0000FBE0F901F90189526E8230F0296A11DCA
:1018C000B11DD2CF1F920F920FB60F9211240BB6FB
:1018D0000F922F933F934F935F936F937F938F93C9
:1018E0009F93AF93BF93EF93FF93E0910E02F0911C
:1018F0000F021995FF91EF91BF91AF919F918F9139
:101900007F916F915F914F913F912F910F900BBEFF
:101910000F900FBE0F901F9018951F920F920FB649
:101920000F9211240BB60F922F933F934F935F9317
:101930006F937F938F939F93AF93BF93EF93FF9397
:10194000E0910C02F0910D021995FF91EF91BF917A
:10195000AF919F918F917F916F915F914F913F9147
:101960002F910F900BBE0F900FBE0F901F901895E8
:101970001F920F920FB60F9211240BB60F922F9356
:101980003F934F935F936F937F938F939F93AF9307
:10199000BF93EF93FF93E0910202F0910302199538
:1019A000FF91EF91BF91AF919F918F917F916F9137
:1019B0005F914F913F912F910F900BBE0F900FBEF3
:1019C0000F901F9018951F920F920FB60F9211242F
:1019D0000BB60F922F933F934F935F936F937F9329
:1019E0008F939F93AF93BF93EF93FF93E091000288
:1019F000F09101021995FF91EF91BF91AF919F91E5
:101A00008F917F916F915F914F913F912F910F90A7
:101A10000BBE0F900FBE0F901F9018951F920F9244
:101A20000FB60F9211240BB60F922F933F934F9343
:101A30005F936F937F938F939F93AF93BF93EF9336
:101A4000FF93E0910A02F0910B021995FF91EF913B
:101A5000BF91AF919F918F917F916F915F914F91C6
:101A60003F912F910F900BBE0F900FBE0F901F90C4
:101A700018951F920F920FB60F9211240BB60F926A
:101A80002F933F934F935F936F937F938F939F9386
:101A9000AF93BF93EF93FF93E0910802F091090297
:101AA0001995FF91EF91BF91AF919F918F917F9188
:101AB0006F915F914F913F912F910F900BBE0F90BF
:101AC0000FBE0F901F9018951F920F920FB60F9296
:101AD00011240BB60F922F933F934F935F936F9305
:101AE0007F938F939F93AF93BF93EF93FF93E09177
:101AF0000602F09107021995FF91EF91BF91AF9106
:101B00009F918F917F916F915F914F913F912F9115
:101B10000F900BBE0F900FBE0F901F9018951F9245
:101B20000F920FB60F9211240BB60F922F933F9383
:101B30004F935F936F937F938F939F93AF93BF93D5
:101B4000EF93FF93E0910402F09105021995FF9144
:101B5000EF91BF91AF919F918F917F916F915F9125
:101B60004F913F912F910F900BBE0F900FBE0F9092
:101B70001F9018951F920F920FB60F9211240BB65B
:101B80000F922F933F934F935F936F937F938F9316
:101B90009F93AF93BF93EF93FF9388ED94E00E94E0
:101BA0006D04FF91EF91BF91AF919F918F917F91C4
:101BB0006F915F914F913F912F910F900BBE0F90BE
:101BC0000FBE0F901F9018951F920F920FB60F9295
:101BD00011240BB60F922F938F939F93EF93FF9344
:101BE000E091E804F091E9048081E091EE04F09145
:101BF000EF0482FD1DC090818091F1048F5F8F738F
:101C00002091F204821741F0E091F104F0E0E852F3
:101C1000FB4F958F8093F104FF91EF919F918F91EE
:101C20002F910F900BBE0F900FBE0F901F90189525
:101C30008081F2CF1F920F920FB60F9211240BB634
:101C40000F922F933F934F935F936F937F938F9355
:101C50009F93AF93BF93EF93FF938091B900887FD9
:101C6000803609F44DC008F040C0883209F4A9C09C
:101C700028F5803109F49DC0C8F4882309F4FBC01D
:101C8000883009F496C0FF91EF91BF91AF919F9179
:101C90008F917F916F915F914F913F912F910F9015
:101CA0000BBE0F900FBE0F901F901895883109F44E
:101CB00088C0803241F78093880414C0803409F4CE
:101CC0009DC040F48033B9F38833E9F680938804EB
:101CD00085ECB0C0803509F485C0883509F496C01C
:101CE000883489F60E94E00BCECF883909F48CC085
:101CF00038F5883729F050F4883611F0803719F616
:101D000083E080938A041092800357C0883809F4D6
:101D10007BC0803919F0803809F0B5CF80918003FD
:101D2000803208F071C0E091800381E08E0F8093D3
:101D300080038091BB00F0E0E05AFC4F80833DC0FF
:101D4000803B39F0E0F4803A09F479C0883A09F030
:101D50009ACF84E080938A0410925F0310925E030E
:101D6000E0918303F0918403199580915E038111C2
:101D70000FC081E080935E0310923E0309C0803C57
:101D800009F4A6CF883C09F4A3CF883B09F07BCFA8
:101D9000E0915F0381E08E0F80935F03F0E0E25CEF
:101DA000FC4F80818093BB0090915F0380915E0324
:101DB00029C0809165048093BB0085EC8093BC00B2
:101DC00062CF9091870480918604981758F5E0912E
:101DD000870481E08E0F80938704F0E0EA59FB4F7F
:101DE0008081E9CFE091870481E08E0F80938704A2
:101DF0008091BB00F0E0EA59FB4F8083909187040B
:101E0000809186049817C8F285E8D8CFE0918704BE
:101E100081E08E0F809387048091BB00F0E0EA5947
:101E2000FB4F80838091890481115CCF81E0809396
:101E3000640484EA8093BC0010928A0424CF85EC69
:101E40008093BC0010928A0480918003803230F429
:101E5000E0918003F0E0E05AFC4F10826091800333
:101E600070E0E0918103F091820380E693E01995A0
:101E70001092800308CF1092880434CFE8EDF4E08C
:101E80001382128288EE93E0A0E0B0E08483958311
:101E9000A683B7832CE532E03183208325EC30E044
:101EA0003587248724EC30E03787268720EC30E024
:101EB000318B208B21EC30E0338B228B22EC30E015
:101EC000358B248B26EC30E0378B268B118E128ECF
:101ED000138E148EE5E7F5E01382128284839583D6
:101EE000A683B7838EE692E0918380830895CF9393
:101EF000DF93CDB7DEB7C854D1090FB6F894DEBF73
:101F00000FBECDBF789484B5826084BD84B58160F6
:101F100084BD85B5826085BD85B5816085BD8091B4
:101F20006E00816080936E0010928100809181002C
:101F30008260809381008091810081608093810024
:101F4000809180008160809380008091B1008460E6
:101F50008093B1008091B00081608093B000809147
:101F600091008260809391008091910081608093C4
:101F70009100809190008160809390008091A100F9
:101F800082608093A1008091A10081608093A10074
:101F90008091A00081608093A000809121018260E7
:101FA00080932101809121018160809321018091A2
:101FB000200181608093200180917A008460809369
:101FC0007A0080917A00826080937A0080917A0012
:101FD000816080937A0080917A00806880937A0093
:101FE0001092C100E091E804F091E90482E080835E
:101FF000E091E404F091E5041082E091E604F091B0
:10200000E70480E180831092F004E091EC04F09109
:10201000ED0486E08083E091EA04F091EB04808196
:1020200080618083E091EA04F091EB048081886014
:102030008083E091EA04F091EB04808180688083E2
:10204000E091EA04F091EB0480818F7D808310920F
:10205000630410926204109291041092B3040E94DF
:10206000590586EF93E0909384038093830387EF71
:1020700093E0909382038093810381E080939004A6
:1020800088E68093B2046BE685E795E00E94CC0673
:1020900060E085E795E00E94CC0681E00E9498050B
:1020A0000FE412E06CE4A62E62E0B62E72E5C72EB5
:1020B00072E0D72EE5E5EE2EE2E0FE2E62E0D801DA
:1020C0008D918D010E94BD0262E0F50181915F0159
:1020D0000E94BD02D6019D906D0161E0892D0E9494
:1020E000BD0261E0F70181917F010E94BD0270E0B5
:1020F00060E0892D0E94EE02F2E002351F07F1F642
:1021000061E088E00E94BD0261E081E20E94BD02C0
:1021100070E060E088E00E94EE0260E081E20E94F0
:102120008F028CE098E090930102809300028091EE
:102130006A008C7F816080936A00EC9A8FE098E05F
:10214000909303028093020280916A00837F8460EF
:1021500080936A00ED9A82E198E090930B0280935D
:102160000A02809169008F73806480936900EB9A02
:102170009E012F5F3F4F790110E000E06901C80127
:102180000E948C1AD7018D937D010F5F1F4F003382
:102190001105A9F789819A81AB81BC818534964567
:1021A000A544B24541F480E3F601A0E1B2E001901C
:1021B0000D928A95E1F71092380483E992E00E942B
:1021C000C60980E992E00E94C6099E012B5D3F4F3F
:1021D0003AAB29AB11E0AE01435F5F4F5CAB4BAB59
:1021E00088ED94E00E945704892B09F418C288ED09
:1021F00094E00E943504E0910A048A3019F08D3091
:1022000009F001C2EE2361F3F0E0E657FC4F1082C3
:1022100062EE72E08AE893E00E94B3177C010097B7
:10222000C1F06C01D6018D916D01882349F0082E13
:10223000000C990B0E94311DF60131978083F2CF7B
:1022400066EE72E0C7010E94391D892B29F40E94B5
:10225000190B10920A04C4CF6DEE72E0C7010E9400
:10226000391D892B39F4109218040E94FE060E9431
:102270006F07EFCF62EF72E0C7010E94391D892B13
:1022800069F4109218040E946F071092890310924B
:102290001704109338040E942207DBCF67EF72E027
:1022A000C7010E94391D892B09F045C020913004D7
:1022B00030913104409132045091330460913802DE
:1022C0007091390280913A0290913B020E94BD1AAE
:1022D000609338027093390280933A0290933B02E4
:1022E00020912C0430912D0440912E0450912F0404
:1022F00060913C0270913D0280913E0290913F02BC
:102300000E94BD1A60933C0270933D0280933E028E
:1023100090933F02109230041092310410923204D4
:102320001092330410922C0410922D0410922E045B
:1023300010922F048ECF60E073E0C7010E94391D18
:10234000892B09F0B4C0FE0131967F0162EE72E084
:1023500090E080E00E94B317009711F489E0C2C0BA
:102360000E949117D7016D937D938D939D937D016D
:1023700049A85AA84A165B0649F789819A81AB8118
:10238000BC818093140290931502A0931602B0931F
:1023900017028D819E81AF81B8858093180290933A
:1023A0001902A0931A02B0931B0289859A85AB8506
:1023B000BC8580931C0290931D02A0931E02B093D3
:1023C0001F028D859E85AF85B889809320029093EA
:1023D0002102A0932202B093230289899A89AB89B2
:1023E000BC898093240290932502A0932602B09387
:1023F00027028D899E89AF89B88D8093280290939A
:102400002902A0932A02B0932B02898D9A8DAB8D5D
:10241000BC8D80932C0290932D02A0932E02B0933A
:102420002F028D8D9E8DAF8DB8A180933002909339
:102430003102A0933202B093330289A19AA1ABA1D9
:10244000BCA18093340290933502A0933602B093DE
:10245000370255E4652E56E5752E862C52E5952EED
:1024600060921002709211028092120290921302F6
:102470000E948507882309F471CF40E1C42E42E011
:10248000D42EF12CE12CD6010D916D01C7010E94D3
:102490008C1A081721F0602FC7010E94941ABFEF11
:1024A000EB1AFB0AE0E3EE16F10469F7E0CE69E00F
:1024B00073E0C7010E94391D892B09F041C062EE0B
:1024C00072E090E080E00E94B3177C0162EE72E05F
:1024D00090E080E00E94B3176C0180918903811124
:1024E00004C081E00E947A07B4CEE114F10409F43B
:1024F00035CFC114D10409F431CFC7010E9495171B
:1025000001977C01C6010E9491174B015C01F3E029
:10251000EF16F10408F022CF20E030E0A9010E947C
:102520006519882309F41ACF1092180433E0432E5A
:1025300040923804B501A4018E2D0E94150889CE61
:102540006DE073E0C7010E94391D892BD1F562EE61
:1025500072E090E080E00E94B3172091890322236B
:1025600009F4BFCF009709F4F9CE0E9491176B01CF
:102570007C0120E030E0A9010E94651987FDEECEC4
:1025800020E030E048E452E4C701B6010E94631C39
:1025900018160CF4E3CE0E948507882309F4DECEDA
:1025A000C0928503D0928603E0928703F09288035D
:1025B0001093180423E0522E509238040E942B09E5
:1025C00048CE62E173E0C7010E94391D892B09F0F2
:1025D000C5CE80918903882309F483CF0E948507A3
:1025E000811102C082E07ECF10921804109228045C
:1025F0001092290410922A0410922B0494E0692E60
:102600006092380426CEEF3708F0EACD91E09E0FB5
:1026100090930A04F0E0E657FC4F8083E1CD1093DD
:10262000900488E68093B204109291041092B3044F
:102630006BE385E795E00E94CC0680E00E94980558
:10264000082F811155C10E94C5036B017C01809147
:102650008A04811163C010938A04109389048FEF58
:1026600080938804109287048DE0809386041093F1
:10267000650480916504806D809365048091640495
:10268000813009F06FC2109264040E94C5036B018F
:102690007C01809165048093BB0080918C049091B3
:1026A0008D04A0918E04B0918F04892B8A2B8B2BE3
:1026B000A1F00E94C50380908C0490908D04A0909E
:1026C0008E04B0908F046C197D098E099F098616BF
:1026D0009706A806B90608F442C08091BC0083FDA5
:1026E000D8CF85EC8093BC000E94C5036B017C01B0
:1026F00080918A04813009F437C2809187048E303A
:1027000008F054C280918704A6E6B4E0E2E4F4E065
:10271000081749F19D9191930F5FFACF80918C0436
:1027200090918D04A0918E04B0918F04892B8A2BF7
:102730008B2B09F48CCF0E94C50380908C04909061
:102740008D04A0908E04B0908F046C197D098E09C1
:102750009F0986169706A806B90608F078CF8091DB
:102760008B040E94770510926304009362040E307C
:1027700009F0BEC00E94EC01082F0E94EC012196D6
:102780000FAF21971FAE2196EEACFFAC2197E82A40
:10279000F92A0E94EC01082F0E94EC0123960FAF4A
:1027A000239722961FAE22972396CEACDFAC2397B9
:1027B000C82AD92A0E94EC01082F0E94EC01259614
:1027C0000FAF259724961FAE24972596AEACBFACCD
:1027D0002597A82AB92A0E94EC010E94EC010E94C8
:1027E000EC010E94EC010E94EC010E94EC010E94AD
:1027F000EC010E94EC01B501BB0C880B990B0E9407
:102800006C194B015C01B601DD0C880B990B0E9421
:102810006C192B013C01A50194010E943C1B6DAB7E
:102820007EAB8FAB98AFA3019201C301B2010E94AE
:10283000CB192B013C01A5019401C501B4010E94F3
:10284000CB199B01AC01C301B2010E94BD1A0E94C9
:10285000A91C4B015C01B701FF0C880B990B0E946E
:102860006C199058A50194010E943C1B6B017C01DE
:1028700021EE3EE245E652E46DA97EA98FA998AD0E
:102880000E94CB1920913C0230913D0240913E02C2
:1028900050913F020E94BC1A60932C0470932D0447
:1028A00080932E0490932F0421EE3EE245E652E4FD
:1028B000C701B6010E94CB1920913802309139022C
:1028C00040913A0250913B020E94BC1A609330043E
:1028D0007093310480933204909333040E94EA038E
:1028E00060933404709335048093360490933704D6
:1028F00080913804882309F443C08530B1F00E94E8
:10290000EA03C0903404D0903504E0903604F0908F
:1029100037046C197D098E099F09693C7105810591
:10292000910518F085E00E947A0780913804823082
:1029300038F1853029F16091300470913104809133
:102940003204909133049F7720E030E040EA50E475
:102950000E94631C18168CF060912C0470912D0459
:1029600080912E0490912F049F7720E030E040EA80
:1029700050E40E94631C18161CF486E00E947A073B
:1029800080913804813009F048C00E94EA03E09148
:102990001704F89424E0E29FF0011124E453FB4F64
:1029A000C080D180E280F38078948090130490906E
:1029B0001404A0901504B0901604C814D904EA04B5
:1029C000FB0481F0C0921304D0921404E092150429
:1029D000F092160460930F04709310048093110416
:1029E00090931204C0900B04D0900C04E0900D045E
:1029F000F0900E042B013C014C185D086E087F0816
:102A00007301620129E9C2162AE3D206E104F10446
:102A100008F4CEC087E00E947A0780913804835082
:102A2000823078F58091B404882359F10E94EA033A
:102A30006B017C01E091B504F89444E0E49FF0015F
:102A40001124E453FB4F408151816281738178945A
:102A50008091C0049091C104A091C204B091C304BC
:102A600046015701881A990AAA0ABB0AE1E38E16A1
:102A7000E5E79E06A104B10408F4D5C087E00E94F2
:102A80007A0780913804833011F40E942B098091D9
:102A90003804843009F061C08091B40481115DC0B4
:102AA00040903004509031046090320470903304B0
:102AB00053014201E894B7F820912C0430912D0481
:102AC00040912E0450912F042BAF3CAF4DAF5EAF21
:102AD00069017A01E894F7F8A7019601C501B401EC
:102AE0000E94631C181614F47501640120E030E0A4
:102AF00040E05FE3C701B6010E94651918160CF4A7
:102B000074C18091280490912904A0912A04B09165
:102B10002B04892B8A2B8B2B51F40E94EA036093A0
:102B200028047093290480932A0490932B040E9414
:102B3000EA03C0902804D0902904E0902A04F09081
:102B40002B046C197D098E099F096031774281053C
:102B5000910518F082E0809338040E94190B0E94BE
:102B600001053ECB85EEBECD80918C0490918D0405
:102B7000A0918E04B0918F04892B8A2B8B2B09F4A2
:102B8000B7CD0E94C50380908C0490908D04A090D6
:102B90008E04B0908F046C197D098E099F098616EA
:102BA0009706A806B90608F0A3CDD9CD8EE0ACCD26
:102BB000C0900F04D0901004E0901104F090120423
:102BC0006C197D098E099F096D3B72408105910545
:102BD00008F423CFE0901704F12CF701EE5AFD4FD3
:102BE00070E060E080810E94EE02F894EE0CFF1C21
:102BF000EE0CFF1CF701E453FB4F1082118212828E
:102C000013820E94EA03F701E45EFB4F6083718345
:102C1000828393837894809117048F5F8093170445
:102C20000E942207FACE4C015D01FAEF8F0E911C33
:102C3000A11CB11C8C149D04AE04BF0430F580901F
:102C4000B7049090B804A090B904B090BA042A01D7
:102C50003B01481859086A087B0853014201811456
:102C60009104A104B10489F031E0181419041A0484
:102C70001B040CF030E021E0E091B6041E160CF0CD
:102C800020E0321711F084E0FACE8C509E4FAF4F07
:102C9000BF4F8C159D05AE05BF05D8F4E091B50476
:102CA00024E0E29FF0011124E45EFB4F80819181DA
:102CB000A281B38126013701481A590A6A0A7B0AA0
:102CC000D301C201853F9140A105B10510F083E019
:102CD000D6CE8091B60418160CF058C08091BB0473
:102CE0009091BC04A091BD04B091BE04481759074F
:102CF0006A077B070CF05BC08091C8049091C904FF
:102D0000A091CA04B091CB04C816D906EA06FB0606
:102D100008F4B7CE8091C4049091C504A091C60474
:102D2000B091C70426013701481A590A6A0A7B0A7A
:102D3000D301C2014497A105B10508F4A2CE809148
:102D4000B50490E0FC01E75EFB4F30812091BF04A9
:102D5000321758F4432F50E04C5F5F4F241715068D
:102D600019F014F025E0230F2083608170E08E5A63
:102D70009D4FDC018C910E94EE02C092C404D0925F
:102D8000C504E092C604F092C7047BCE882309F400
:102D9000B3CF8091BB049091BC04A091BD04B091CD
:102DA000BE0484179507A607B7070CF4A5CFE090DB
:102DB000B504F12CF701EE5AFD4F70E060E0808120
:102DC0000E94EE02F701E75EFB4F10821092B404FE
:102DD00080913804833009F05ACE80911804811113
:102DE00054CE82E0809338044CCE10922804109286
:102DF000290410922A0410922B0440E252E05AAFA8
:102E000049AFCE0101969EAB8DAB1C01C12CD12CDC
:102E10007601A9ADBAAD8D909D90AD90BD90BAAF41
:102E2000A9AF29968CAE9DAEAEAEBFAE29971896CF
:102E30002D913D914D915C911B976BAD7CAD8DAD0E
:102E40009EAD0E94CB194B015C0129962CAD3DAD86
:102E50004EAD5FAD2997C301B2010E94CB199B0112
:102E6000AC01C501B4010E94BD1A9B01AC01DC019B
:102E7000CB01B058F10181939193A193B1931F01BC
:102E8000C701B6010E94BC1A6B017C018BA89CA8EB
:102E90002814390409F0BDCF20E030E040E450E4CC
:102EA0000E949B1B1B012C01712CC12CD12C760183
:102EB00000E0ADA9BEA96D917D918D919D91BEABB4
:102EC000ADABA20191010E94BC1A4B015C01EDA9BE
:102ED000FEA9349780829182A282B3829F77A70154
:102EE00096015F770E94631C18161CF4750164013B
:102EF000702E0F5F0330E9F620E030E0A901C70132
:102F0000B6010E94631C40E050E060E87EE387FF6A
:102F100004C040E050E060E87EEB872D0E94150879
:102F20001CCE662777270C94E617FC018827992783
:102F3000E89421912032E9F3293010F02E30C8F3C3
:102F40002B3241F02D3239F4689404C00E94DE1710
:102F5000820F911D219120532A30C0F31EF49095C9
:102F600081959F4F089541E855E00C94B717FA01F9
:102F7000A191B081009719F41097E1F0CD01DC0127
:102F8000CD010D90002011F4C00113C0FB0121916F
:102F9000222319F02015D9F7F3CFFB012191201539
:102FA00019F41E92119606C02223C1F70D9000203D
:102FB000A1F7D001FA01A193B08308957AE0979F19
:102FC000902D879F802D910D112408958F929F92AF
:102FD000AF92BF92CF92DF92EF92FF920F931F9327
:102FE000CF93DF935C017B016115710519F0DB0163
:102FF0008D939C9385010F5F1F4FF501D0818D2F1D
:1030000090E00E9444196C01892BB9F5DD32B9F5C5
:103010000F5F1F4FD5011196DC91C1E05801F1E01F
:10302000AF1AB10843E050E066EF71E0C5010E94BD
:103030004D19892B69F5680182E0C80ED11C45E065
:1030400050E061EF71E0C6010E944D19892B21F417
:10305000680197E0C90ED11CE114F10419F0D70101
:10306000CD92DC9260E070E080E89FEFC111FFC07C
:1030700060E070E080E89FE7FAC05801BBCFDB3228
:1030800029F485010E5F1F4FF501D181C0E0C6CF45
:1030900043E050E06EEE71E0C5010E944D19892BAE
:1030A000E9F0F80110E000E020E030E0A9015F0164
:1030B000B0ED8B2E8D0E89E08815C8F19C2E68949A
:1030C00091F88C2F8870C2FF16C0811102C00F5F6B
:1030D0001F4F3196D501DC91C92DE9CFE114F104E0
:1030E00029F00E5F1F4FF7011183008360E070E04D
:1030F00080EC9FE7BCC0882311F001501109A5E0C6
:10310000B0E00E94A21A9B01AC01220F331F441FA2
:10311000551F280D311D411D511D283999E93907C9
:10312000490799E15907A8F2C6609C2ED2CFAEEFAD
:103130008A1206C0C3FD3CC09C2E689493F8C9CF88
:10314000DF7DD534A9F580818D3239F4C061DF018E
:103150001296818162E070E006C0DF018B32C1F31C
:10316000119661E070E080535D01A61AB70A8A30BB
:10317000F8F4E0E8CE16ECE0DE065CF4B601660F8B
:10318000771F660F771FC60ED71ECC0CDD1CC80E2E
:10319000D11C5D01FFEFAF1ABF0A8C9180538A30BA
:1031A000A8F1C4FF03C0D194C194D1080C0D1D1D1A
:1031B000C1FF09C0E114F10431F081E0A81AB1089F
:1031C000D701AD92BC92CA01B9010E946A19C370BD
:1031D000C33009F490584B015C0120E030E0A901B4
:1031E0000E946519882309F440C0C5E2D2E017FFA8
:1031F00005C0119501951109CDE0D2E06E01B8E14D
:10320000CB1AD10880E2E82EF12C0FC0D501B1CF46
:10321000FE0125913591459154910E191F09C50163
:10322000B4010E94CB194B015C01D501C4010E15FC
:103230001F0574F72497F594E794CC16DD06A9F7DB
:103240008A2F880F8B2F881F8F3F49F020E030E0B6
:10325000A901C501B4010E946519811106C082E26D
:1032600090E09093840580938305C501B401DF91BC
:10327000CF911F910F91FF90EF90DF90CF90BF9073
:10328000AF909F908F90089591110C94381A8032CE
:1032900019F089508550C8F70895FB01DC014150B1
:1032A000504088F08D9181341CF08B350CF4805E99
:1032B000659161341CF06B350CF4605E861B611106
:1032C00071F3990B0895881BFCCF0E94A71908F48D
:1032D00081E00895E89409C097FB3EF490958095AD
:1032E000709561957F4F8F4F9F4F9923A9F0F92FCC
:1032F00096E9BB279395F695879577956795B7954A
:10330000F111F8CFFAF4BB0F11F460FF1BC06F5F2F
:103310007F4F8F4F9F4F16C0882311F096E911C041
:10332000772321F09EE8872F762F05C0662371F062
:1033300096E8862F70E060E02AF09A95660F771F76
:10334000881FDAF7880F9695879597F90895990F52
:103350000008550FAA0BE0E8FEEF16161706E8075F
:10336000F907C0F012161306E407F50798F0621B80
:10337000730B840B950B39F40A2661F0232B242B55
:10338000252B21F408950A2609F4A140A6958FEF74
:10339000811D811D08950E94DE190C94521A0E940D
:1033A000441A38F00E944B1A20F0952311F00C9427
:1033B0003B1A0C94411A11240C94861A0E94631A29
:1033C00070F3959FC1F3950F50E0551F629FF00178
:1033D000729FBB27F00DB11D639FAA27F00DB11D91
:1033E000AA1F649F6627B00DA11D661F829F22271A
:1033F000B00DA11D621F739FB00DA11D621F839FA1
:10340000A00D611D221F749F3327A00D611D231F76
:10341000849F600D211D822F762F6A2F11249F57C4
:1034200050409AF0F1F088234AF0EE0FFF1FBB1FC7
:10343000661F771F881F91505040A9F79E3F510586
:1034400080F00C943B1A0C94861A5F3FE4F3983E8C
:10345000D4F3869577956795B795F795E7959F5F30
:10346000C1F7FE2B880F911D9695879597F90895C2
:1034700099278827089597F99F6780E870E060E0B2
:1034800008959FEF80EC089500240A9416161706FD
:1034900018060906089500240A9412161306140645
:1034A00005060895092E0394000C11F4882352F0A8
:1034B000BB0F40F4BF2B11F460FF04C06F5F7F4F60
:1034C0008F4F9F4F089557FD9058440F551F59F047
:1034D0005F3F71F04795880F97FB991F61F09F3F01
:1034E00079F087950895121613061406551FF2CF2A
:1034F0004695F1DF08C0161617061806991FF1CF7A
:1035000086957105610508940895E894BB276627A0
:103510007727CB0197F90895F999FECF92BD81BD28
:10352000F89A992780B50895262FF999FECF1FBAEA
:1035300092BD81BD20BD0FB6F894FA9AF99A0FBEDC
:10354000019608950E94AD1AA59F900DB49F900D0D
:10355000A49F800D911D11240895A29FB001B39FD7
:10356000C001A39F700D811D1124911DB29F700D8C
:10357000811D1124911D08955058BB27AA270E9430
:10358000D41A0C94521A0E94441A38F00E944B1A12
:1035900020F039F49F3F19F426F40C94411A0EF4EC
:1035A000E095E7FB0C943B1AE92F0E94631A58F34D
:1035B000BA17620773078407950720F079F4A6F518
:1035C0000C94851A0EF4E0950B2EBA2FA02D0B014A
:1035D000B90190010C01CA01A0011124FF27591B58
:1035E00099F0593F50F4503E68F11A16F040A22F5E
:1035F000232F342F4427585FF3CF469537952795CF
:10360000A795F0405395C9F77EF41F16BA0B620BCD
:10361000730B840BBAF09150A1F0FF0FBB1F661F14
:10362000771F881FC2F70EC0BA0F621F731F841F57
:1036300048F4879577956795B795F7959E3F08F07D
:10364000B0CF9395880F08F09927EE0F979587953F
:1036500008950E94441A60F080E891E009F49EEF1A
:103660000E944B1A28F040E851E071F45EEF0CC064
:103670000C94411A0C94851AE92FE0780E94631A81
:1036800040F3092E052AB1F32617370748075907D3
:1036900038F00E2E07F8E02569F0E025E0640AC056
:1036A000EF6307F8009407FADB01B9019D01DC0123
:1036B000CA01AD01EF930E94B21B0E94521A0E94F0
:1036C0006C1B5F91552339F02BED3FE049E450FD31
:1036D00049EC0C94BD1A0895DF93DD27B92FBF770D
:1036E00040E85FE31616170648075B0718F4D92F62
:1036F0000E94681C9F938F937F936F930E94E91C95
:10370000E4EEF0E00E943C1C0E94521A2F913F917F
:103710004F915F910E94DE19DD2351F09058A2EA8B
:103720002AED3FE049EC5FE3D0785D270E94D41A90
:10373000DF910C94521A0E94AF1B0C94521A0E94F3
:103740004B1A58F00E94441A40F029F45F3F29F0C8
:103750000C943B1A51110C94861A0C94411A0E9435
:10376000631A68F39923B1F3552391F3951B550B15
:10377000BB27AA2762177307840738F09F5F5F4F44
:10378000220F331F441FAA1FA9F335D00E2E3AF083
:10379000E0E832D091505040E695001CCAF72BD09B
:1037A000FE2F29D0660F771F881FBB1F26173707EC
:1037B0004807AB07B0E809F0BB0B802DBF01FF271E
:1037C00093585F4F3AF09E3F510578F00C943B1AA6
:1037D0000C94861A5F3FE4F3983ED4F38695779570
:1037E0006795B795F7959F5FC9F7880F911D9695D7
:1037F000879597F90895E1E0660F771F881FBB1F33
:10380000621773078407BA0720F0621B730B840BDF
:10381000BA0BEE1F88F7E09508950E946B1A88F0A6
:103820009F5798F0B92F9927B751B0F0E1F0660F84
:10383000771F881F991F1AF0BA95C9F714C0B130C5
:1038400091F00E94851AB1E008950C94851A672FB3
:10385000782F8827B85F39F0B93FCCF386957795F4
:103860006795B395D9F73EF49095809570956195DD
:103870007F4F8F4F9F4F0895DF93CF931F930F93E9
:10388000FF92EF92DF927B018C01689406C0DA2EE2
:10389000EF010E94DE19FE01E894A5912591359172
:1038A00045915591A6F3EF010E94D41AFE019701AC
:1038B000A801DA9469F7DF90EF90FF900F911F91C4
:1038C000CF91DF9108950E94A71908F48FEF089512
:1038D0009B01AC0160E070E080E89FE30C949B1BCF
:1038E0000E946B1A58F19E5760F19851A0F0E9F0D0
:1038F000983020F5092E9927660F771F881F991F8A
:103900000A94D1F712C0062E672F782F8827985F68
:1039100011F4000C07C0993FB4F38695779567952D
:103920009395D9F7611D711D811D3EF49095809589
:10393000709561957F4F8F4F9F4F089568940C94B9
:10394000861A0C94851A19F416F40C94411A0C94E6
:10395000F21C0E946B1AB8F39923C9F3B6F39F5770
:10396000550B87FF0E94001D0024A0E640EA90014D
:1039700080585695979528F4805C660F771F881FAE
:1039800020F026173707480730F4621B730B840BAF
:10399000202931294A2BA6951794079420253125F3
:1039A0004A2758F7660F771F881F20F0261737071A
:1039B000480730F4620B730B840B200D311D411D41
:1039C000A09581F7B901842F9158880F9695879516
:1039D00008959B01AC010C94CB190E94A719880B88
:1039E000990B08959F3F31F0915020F4879577957A
:1039F0006795B795880F911D9695879597F90895C6
:103A000091505040660F771F881FD2F70895A1E2AA
:103A10001A2EAA1BBB1BFD010DC0AA1FBB1FEE1F48
:103A2000FF1FA217B307E407F50720F0A21BB30B93
:103A3000E40BF50B661F771F881F991F1A9469F70F
:103A400060957095809590959B01AC01BD01CF016B
:103A50000895EE0FFF1F881F8BBF0790F691E02D92
:103A600019949111089581568A5108F4805285580D
:103A70000895FB01DC018D91019080190110D9F3AB
:103A8000990B0895F894FFCFF803F803F803F803AF
:103A9000F803F803F803F803455645520000000008
:103AA0000000000000000000A98447BECE6D404029
:103AB00084F533C093FF56405A66C1BFCC98ECBF23
:103AC00000000000000000001803F2021D032203A2
:103AD000290332031617180203120506071E1F20BA
:103AE000000000008F04F9032604E10457043504A4
:103AF000490400000000CC069F06FB0688069806D5
:103B0000D90189066E616E00696E66006F76660087
:103B1000554E4B4E4F574E000D0A006D732C73746B
:103B20006174652C70697463685F6465672C726F7B
:103B30006C6C5F6465672C656E63312C656E6332F7
:103B40002C656E63332C70776D312C646972312C67
:103B500070776D322C646972322C70776D332C64FF
:103B60006972332C6661756C7400202C0900535403
:103B7000415455530053544F5000484F4D45005A3F
:103B800045524F5F494D5500534156455F43414CA7
:103B9000004A4F47004C494654004C4556454C009E
:103BA000494E49540049444C45004D4F56494E47F3
:103BB000004C4556454C494E47004641554C540033
:020000040003F7
:10E000000D9489F10D94B2F10D94B2F10D94B2F129
:10E010000D94B2F10D94B2F10D94B2F10D94B2F1F0
:10E020000D94B2F10D94B2F10D94B2F10D94B2F1E0
:10E030000D94B2F10D94B2F10D94B2F10D94B2F1D0
:10E040000D94B2F10D94B2F10D94B2F10D94B2F1C0
:10E050000D94B2F10D94B2F10D94B2F10D94B2F1B0
:10E060000D94B2F10D94B2F10D94B2F10D94B2F1A0
:10E070000D94B2F10D94B2F10D94B2F10D94B2F190
:10E080000D94B2F10D94B2F10D94B2F10D94B2F180
:10E090000D94B2F10D94B2F10D94B2F10D94B2F170
:10E0A0000D94B2F10D94B2F10D94B2F10D94B2F160
:10E0B0000D94B2F10D94B2F10D94B2F10D94B2F150
:10E0C0000D94B2F10D94B2F10D94B2F10D94B2F140
:10E0D0000D94B2F10D94B2F10D94B2F10D94B2F130
:10E0E0000D94B2F141546D656761323536300041AF
:10E0F000726475696E6F206578706C6F72657220DE
:10E1000073746B3530305632206279204D4C530099
:10E11000426F6F746C6F616465723E004875683F52
:10E1200000436F6D70696C6564206F6E203D200048
:10E130004350552054797065202020203D20005FF9
:10E140005F4156525F415243485F5F3D2000415658
:10E1500052204C696243205665723D20004743437C
:10E160002056657273696F6E203D20004350552024
:10E1700049442020202020203D20004C6F7720663D
:10E18000757365202020203D20004869676820665F
:10E190007573652020203D200045787420667573D6
:10E1A00065202020203D20004C6F636B2066757336
:10E1B000652020203D20004D617220203720323024
:10E1C000313300312E362E3800342E332E350056A2
:10E1D00023202020414444522020206F7020636F70
:10E1E00064652020202020696E73747275637469E1
:10E1F0006F6E2061646472202020496E74657272B3
:10E20000757074006E6F20766563746F7200726A49
:10E210006D702020006A6D70200057686174207056
:10E220006F72743A00506F7274206E6F7420737541
:10E2300070706F72746564004D7573742062652030
:10E2400061206C6574746572002000577269747483
:10E25000696E672045450052656164696E672045B7
:10E26000450045452065727220636E743D00504F35
:10E27000525400303D5A65726F2061646472003FF1
:10E280003D43505520737461747300403D454550C3
:10E29000524F4D207465737400423D426C696E6B41
:10E2A000204C454400453D44756D70204545505215
:10E2B0004F4D00463D44756D7020464C415348001B
:10E2C000483D48656C70004C3D4C69737420492F83
:10E2D0004F20506F72747300513D51756974005234
:10E2E0003D44756D702052414D00563D73686F7707
:10E2F00020696E7465727275707420566563746FF0
:10E30000727300593D506F727420626C696E6B00BD
:10E310002A0011241FBECFEFD1E2DEBFCDBF01E046
:10E320000CBF12E0A0E0B2E0EEE1FDEF03E00BBFB6
:10E3300002C007900D92A030B107D9F712E0A0E01B
:10E34000B2E001C01D92AE30B107E1F70F9460F367
:10E350000D948DFE01E20EBF0FEF0DBF11241FBE05
:10E360000D9460F30D9400F020E030E040ED57E0B4
:10E3700005C0FA013197F1F72F5F3F4F2817390792
:10E38000C0F308959C01260F311DC901A0E0B0E043
:10E390002F5F3F4FABBFFC018791882361F08093D3
:10E3A000C6008091C00086FFFCCF8091C0008064D1
:10E3B0008093C000EACF08958DE08093C6008091DD
:10E3C000C00086FFFCCF8091C00080648093C000B5
:10E3D0008AE08093C6008091C00086FFFCCF8091C8
:10E3E000C00080648093C00008950F94C2F10F9420
:10E3F000DCF10895FC019081992359F09093C600B7
:10E400008091C00086FFFCCF8091C0008064809323
:10E41000C0003196992379F70895282F982F929567
:10E420009F70892F805D8A3308F0895F8093C600D2
:10E430008091C00086FFFCCF8091C00080648093F3
:10E44000C000822F8F70982F905D9A3308F0995FEB
:10E450009093C6008091C00086FFFCCF8091C000E1
:10E4600080648093C00008959C01FB01853691056E
:10E470001CF46330710594F0C90164E670E00F94F8
:10E480002EFE605D7F4F6093C6008091C00086FFC6
:10E49000FCCF8091C00080648093C0002B30310598
:10E4A00014F43297B4F0C90164E670E00F942EFEC4
:10E4B0006AE070E00F942EFE605D7F4F6093C600AF
:10E4C0008091C00086FFFCCF8091C0008064809363
:10E4D000C000C9016AE070E00F942EFEC0968093E0
:10E4E000C6008091C00086FFFCCF8091C000806490
:10E4F0008093C00008951F93182F8EE692EE60E07F
:10E500000F94C2F11093C6008091C00086FFFCCF2B
:10E510008091C00080648093C0000F94DCF11F9153
:10E5200008952F923F924F925F926F927F928F92B7
:10E530009F92AF92BF92CF92DF92EF92FF920F9392
:10E540001F93DF93CF93CDB7DEB762970FB6F894E2
:10E55000DEBF0FBECDBF382E622ECA01DB015C01CB
:10E560006D01772420E2222E2E010894411C511CBB
:10E570008BC081E0A81680E0B80681E0C80680E084
:10E58000D80628F0C601AA27BB270F940DF2BB2797
:10E59000AD2D9C2D8B2D0F940DF28A2D0F940DF225
:10E5A0002092C6008091C00086FFFCCF8091C00001
:10E5B00080648093C0009DE29093C6008091C0006B
:10E5C00086FFFCCF8091C00080648093C0002092C1
:10E5D000C6008091C00086FFFCCF8091C00080649F
:10E5E0008093C00019828601750188249924A1E0D6
:10E5F0003A1651F03A1620F0B2E03B1661F409C029
:10E600000BBFF701779007C0C7010F9477FE782EF4
:10E6100002C0F7017080872D0F940DF22092C60082
:10E620008091C00086FFFCCF8091C0008064809301
:10E63000C000872D8052F401EF70F0708F3520F408
:10E64000E40DF51D708204C0E40DF51D8EE280839B
:10E650000894E11CF11C011D111D0894811C911CE2
:10E6600090E18916910409F0C2CF80E190E0A0E02A
:10E67000B0E0A80EB91ECA1EDB1E198AC2010F9493
:10E68000FAF10F94DCF16A94662009F072CF629679
:10E690000FB6F894DEBF0FBECDBFCF91DF911F91B3
:10E6A0000F91FF90EF90DF90CF90BF90AF909F9031
:10E6B0008F907F906F905F904F903F902F90089534
:10E6C0002F923F924F925F926F927F928F929F9282
:10E6D000AF92BF92CF92DF92EF92FF920F931F9370
:10E6E000DF93CF93CDB7DEB7CD53D1400FB6F894BB
:10E6F000DEBF0FBECDBF01E20EBF0FEF0DBF94B75F
:10E70000F894A89514BE80916000886180936000A1
:10E7100010926000789493FF05C0E0910002F091A0
:10E7200001021995279A2F9A8091C00082608093E8
:10E73000C00080E18093C40088E18093C1000000A4
:10E74000EE24FF24870144E0A42EB12CCC24DD2448
:10E7500024C0C5010197F1F70894E11CF11C011DCB
:10E76000111D21E2E2162EE4F20620E0020720E06D
:10E77000120718F031E0C32ED12CC801B70127ECE5
:10E780003BE140E050E00F9441FE611571058105C9
:10E79000910519F485B1805885B98091C00087FD35
:10E7A00003C0C114D104A9F2A6014F5F5F4FC25E3E
:10E7B000DE4F59834883CE51D140C25EDE4F8881FF
:10E7C0009981CE51D140019711F00D9410FEC05D9A
:10E7D000DE4F19821882C053D14060E0C15DDE4F28
:10E7E0001882CF52D14088249924C35DDE4F19820C
:10E7F0001882CD52D140C05EDE4F188219821A8233
:10E800001B82C052D140CE5CDE4F188219821A8220
:10E810001B82C253D140EE24FF2487010BBFF701B6
:10E8200007911691C45CDE4F19830883CC53D14005
:10E830000D940BFEC25EDE4F28813981CE51D1404E
:10E840002130310509F52091C600C25EDE4F1982E4
:10E850001882CE51D14022C02F5F3F4F4F4F5F4FA4
:10E86000213082E138078AE7480780E0580780F0C6
:10E87000C45CDE4FE881F981CC53D140EF5FFF4F9C
:10E8800019F0EE27FF27099420E030E040E050E047
:10E890008091C00087FFE0CF2091C600C35DDE4FAE
:10E8A00048815981CD52D1404F5F5F4FC35DDE4FEC
:10E8B00059834883CD52D140213209F063C64A3092
:10E8C000510508F05FC60894811C911C53E0851621
:10E8D000910409F059C600E010E018C081E280936D
:10E8E000C6008091C00086FFFCCF8091C00080648C
:10E8F0008093C0002F5F3F4F2931310579F70F9486
:10E90000DCF10F5F1F4F0530110519F020E030E0FA
:10E91000E5CF10920A0210920B0210920C02109294
:10E920000D02109206021092070210920802109235
:10E930000902109202021092030210920402109235
:10E9400005028FEE90EE60E00F94F5F180E191EE1C
:10E9500060E00F94C2F18091C00087FFFCCF9091DE
:10E96000C600903608F09F759032B8F09093C600BC
:10E970008091C00086FFFCCF8091C00080648093AE
:10E98000C000A0E2A093C6008091C00086FFFCCF2B
:10E990008091C00080648093C000983409F4D7C18E
:10E9A0009934B8F4923409F459C1933458F490333B
:10E9B00019F1903308F4E3C59F33A1F1903409F0C5
:10E9C000DEC5BDC0953409F470C1963409F0D7C5D1
:10E9D00098C1923509F42BC2933538F49C3409F46C
:10E9E000F5C1913509F0CBC518C2963509F445C279
:10E9F000993509F0C4C567C483E792EE62E00F94CD
:10EA0000F5F110920602109207021092080210927D
:10EA1000090210920A0210920B0210920C0210923C
:10EA20000D0213C18FE792EE62E00F94F5F18FEEC5
:10EA300090EE60E00F94F5F181E291EE60E00F94CA
:10EA4000C2F187EB91EE60E00F94F5F180E391EE77
:10EA500060E00F94C2F184EE90EE60E00F94F5F167
:10EA60008FE391EE60E00F94C2F186E090E061E008
:10EA700070E00F9434F20F94DCF18DE591EE60E0DC
:10EA80000F94C2F189EC91EE60E00F94F5F18EE401
:10EA900091EE60E00F94C2F183EC91EE60E00F9490
:10EAA000F5F18CE691EE60E00F94C2F18EE10F94E7
:10EAB0000DF288E90F940DF281E00F940DF20F949E
:10EAC000DCF18BE791EE60E00F94C2F119E0E0E039
:10EAD000F0E010935700E4918E2F0F940DF20F94F5
:10EAE000DCF18AE891EE60E00F94C2F1E3E0F0E03F
:10EAF00010935700E4918E2F0F940DF20F94DCF1D8
:10EB000089E991EE60E00F94C2F1E2E0F0E0109349
:10EB10005700E4918E2F0F940DF20F94DCF188EAE8
:10EB200091EE60E00F94C2F1E1E0F0E01093570045
:10EB30001491812F0F940DF20F94DCF107CF8BE825
:10EB400092EE62E00F94F5F18BE492EE60E00F94A8
:10EB5000F5F10F94DCF100E010E019C0C8016F2D51
:10EB60000F947FFEFF2031F489E492EE60E00F9471
:10EB7000C2F10BC0F092C6008091C00086FFFCCFAE
:10EB80008091C00080648093C0000F5F1F4FC80158
:10EB900081519F41A0E0B0E0ABBFFC01F790BAE229
:10EBA000FB1621F0E2E000301E07C1F60F94DCF105
:10EBB0000F94DCF187E592EE60E00F94F5F10F948D
:10EBC000DCF1CC24DD2400E010E01EC0C8010F946D
:10EBD00077FEF82E882331F489E492EE60E00F94FA
:10EBE000C2F10BC08093C6008091C00086FFFCCFAD
:10EBF0008091C00080648093C000FE1419F00894D6
:10EC0000C11CD11C0F5F1F4FC80181519F41A0E063
:10EC1000B0E0ABBFFC01E790FAE2EF1621F022E092
:10EC20000030120799F60F94DCF10F94DCF182E6C4
:10EC300092EE60E00F94C2F1C60161E070E00F94C3
:10EC400034F20F94DCF10F94DCF110920202109276
:10EC50000302109204021092050278CE89E992EE26
:10EC600062E00F94F5F1279A2F9A16C02F9880E052
:10EC700090E0E0EDF7E03197F1F7019684369105E9
:10EC8000C1F72F9A80E090E0E0EDF7E03197F1F7DF
:10EC9000019684369105C1F78091C00087FFE6CFC9
:10ECA0008091C00087FFFCCF64C485EA92EE62E0E9
:10ECB0000F94F5F140910202509103026091040219
:10ECC0007091050281E020E10F9491F2809102029F
:10ECD00090910302A0910402B091050280509F4FD1
:10ECE000AF4FBF4F8093020290930302A0930402A0
:10ECF000B093050280509041A040B04008F426CE69
:10ED0000A4CF83EB92EE62E00F94F5F140910602FE
:10ED100050910702609108027091090280E020E1A1
:10ED20000F9491F28091060290910702A09108023F
:10ED3000B091090280509F4FAF4FBF4F80930602A2
:10ED400090930702A0930802B0930902FFCD80ECD4
:10ED500092EE62E00F94F5F183E792EE60E00F949B
:10ED6000F5F18FE792EE60E00F94F5F18BE892EE0B
:10ED700060E00F94F5F189E992EE60E00F94F5F10F
:10ED800085EA92EE60E00F94F5F183EB92EE60E09D
:10ED90000F94F5F180EC92EE60E00F94F5F187ECC2
:10EDA00092EE60E00F94F5F188ED92EE60E00F9442
:10EDB000F5F18FED92EE60E00F94F5F18AEE92EEB0
:10EDC00060E00F94F5F183E093EEBDCD87EC92EE19
:10EDD00062E00F94F5F181E40F947BF282E40F94EA
:10EDE0007BF283E40F947BF284E40F947BF285E45E
:10EDF0000F947BF286E40F947BF287E40F947BF20E
:10EE000088E40F947BF28AE40F947BF28BE40F94F6
:10EE10007BF28CE40F947BF299CD88ED92EE62E068
:10EE20000F94F5F1772473948824992409C48FED05
:10EE300092EE62E00F94F5F140910A0250910B02BC
:10EE400060910C0270910D0282E020E10F9491F22A
:10EE500080910A0290910B02A0910C02B0910D02D8
:10EE600080509F4FAF4FBF4F80930A0290930B0289
:10EE7000A0930C02B0930D0269CD8AEE92EE62E08F
:10EE80000F94F5F184EE90EE60E00F94F5F18FECC5
:10EE900091EE60E00F94F5F1662477244301CC5D98
:10EEA000DE4F19821882C452D140D401C301B695F5
:10EEB000A79597958795CA5DDE4F88839983AA8326
:10EEC000BB83C652D140CC5DDE4FA881B981C4520C
:10EED000D1401196CC5DDE4FB983A883C452D14096
:10EEE000CD0162E070E00F9434F2B0E2B093C6005E
:10EEF0008091C00086FFFCCF8091C0008064809329
:10EF0000C000EDE2E093C6008091C00086FFFCCF18
:10EF10008091C00080648093C000F0E2F093C6004E
:10EF20008091C00086FFFCCF8091C00080648093F8
:10EF3000C000CA5DDE4FE880F9800A811B81C6529D
:10EF4000D140BB27A12F902F8F2D0F940DF2CA5DBA
:10EF5000DE4F8881C652D1400F940DF2B0E2FB2EF5
:10EF6000F092C6008091C00086FFFCCF8091C00067
:10EF700080648093C0000DE30093C6008091C000C0
:10EF800086FFFCCF8091C00080648093C00010E2B7
:10EF90001093C6008091C00086FFFCCF8091C00016
:10EFA00080648093C0008BBEF3012791C65DDE4F65
:10EFB0002883CA52D140A22EBB24CC24DD2408943D
:10EFC000611C711C811C911C8BBEF3018791282E42
:10EFD0003324442455240894611C711C811C911C09
:10EFE0008BBEF3013791C55DDE4F3883CB52D140E4
:10EFF0000894611C711C811C911C8BBEF30147910C
:10F00000C45DDE4F4883CC52D140ADEFEA2EAFEF66
:10F01000FA2EAFEF0A2FAFEF1A2F6E0C7F1C801E57
:10F02000911E142D032DF22CEE24EA0CFB1C0C1D5A
:10F030001D1D0F940DF220E22093C6008091C000A8
:10F0400086FFFCCF8091C00080648093C000C65DC5
:10F05000DE4F8881CA52D1400F940DF230E23093D6
:10F06000C6008091C00086FFFCCF8091C000806404
:10F070008093C000C45DDE4F8881CC52D1400F9494
:10F080000DF240E24093C6008091C00086FFFCCFA5
:10F090008091C00080648093C000C55DDE4F888190
:10F0A000CB52D1400F940DF250E25093C6008091A4
:10F0B000C00086FFFCCF8091C00080648093C000B8
:10F0C0008FEFE8168FEFF80680E0080780E018075A
:10F0D00031F484E092EE60E00F94C2F1DFC0D80119
:10F0E000C7018070907CA070B0708050904CA040A0
:10F0F000B040D1F52FEF3FE340E050E0E222F322B1
:10F1000004231523CA5DDE4FA880B980CA80DB8046
:10F11000C652D140AE0CBF1CC01ED11EAA0CBB1CD7
:10F12000CC1CDD1C8EE092EE60E00F94C2F1BB2798
:10F13000A12F902F8F2D0F940DF28E2D0F940DF285
:10F1400030E23093C6008091C00086FFFCCF8091F2
:10F15000C00080648093C0004EE34093C60080915D
:10F16000C00086FFFCCF87C08EE09EEFA0E0B0E03D
:10F17000E822F9220A231B239CE0E91694E9F90608
:10F1800090E0090790E0190709F088C0C45DDE4FE0
:10F19000A881CC52D140EA2EFF2400E010E0102FCD
:10F1A0000F2DFE2CEE24C55DDE4FB881CB52D14031
:10F1B000EB0EF11C011D111DD601C501817090706F
:10F1C000A070B070DC0199278827E80EF91E0A1F8D
:10F1D0001B1F20EF30E040E050E0A222B322C42207
:10F1E000D52241E1AA0CBB1CCC1CDD1C4A95D1F7F1
:10F1F000EA0CFB1C0C1D1D1D81E090E0A0E0B0E0BE
:10F20000282239224A225B2235E1220C331C441C7D
:10F21000551C3A95D1F7E20CF31C041D151D57013E
:10F220006801AA0CBB1CCC1CDD1C85E192EE60E0E1
:10F230000F94C2F1C801AA27BB270F940DF2BB2778
:10F24000A12F902F8F2D0F940DF28E2D0F940DF274
:10F2500090E29093C6008091C00086FFFCCF809121
:10F26000C00080648093C000AEE3A093C60080918C
:10F27000C00086FFFCCF8091C00080648093C000F6
:10F28000C601AA27BB270F940DF2BB27AD2D9C2DDD
:10F290008B2D0F940DF28A2D0F940DF20F94DCF14B
:10F2A000CC5DDE4FE881F981C452D140F99709F471
:10F2B0004DCBF4E0EF2EF12C012D112D6E0C7F1CA7
:10F2C000801E911EF2CD83E093EE62E00F94F5F183
:10F2D0008AE192EE60E00F94C2F18091C00087FF56
:10F2E000FCCF1091C6001F751093C6008091C0001E
:10F2F00086FFFCCF8091C00080648093C0000F9493
:10F30000DCF1812F81548A3108F036C1163409F4BA
:10F3100095C0173490F4133409F44EC0143430F40B
:10F320001134F1F0123409F01DC130C0143409F465
:10F3300059C0153409F016C16BC01A3409F4C4C0A1
:10F340001B3438F4173409F48FC0183409F00AC19B
:10F35000A1C01B3409F4D2C01C3409F003C1E8C0B9
:10F360008FEF81B90DC082B1809582B980E090E0C5
:10F37000E0EDF7E03197F1F70196883C9105C1F790
:10F380008091C00087FFEFCF12B8EFC08FEF84B934
:10F390000DC085B1809585B980E090E0E0EDF7E0A3
:10F3A0003197F1F70196883C9105C1F78091C00033
:10F3B00087FFEFCF15B8D9C08FEF87B90DC088B1DF
:10F3C000809588B980E090E0E0EDF7E03197F1F7C3
:10F3D0000196883C9105C1F78091C00087FFEFCF6F
:10F3E00018B8C3C08FEF8AB90DC08BB180958BB9A7
:10F3F00080E090E0E0EDF7E03197F1F70196883C8E
:10F400009105C1F78091C00087FFEFCF1BB8ADC059
:10F410008FEF8DB90DC08EB180958EB980E090E0F0
:10F42000E0EDF7E03197F1F70196883C9105C1F7DF
:10F430008091C00087FFEFCF1EB897C08FEF80BBD1
:10F440000DC081B3809581BB80E090E0E0EDF7E0F6
:10F450003197F1F70196883C9105C1F78091C00082
:10F4600087FFEFCF11BA81C08FEF83BB0DC084B38C
:10F47000809584BB80E090E0E0EDF7E03197F1F714
:10F480000196883C9105C1F78091C00087FFEFCFBE
:10F4900014BA6BC08FEF809301010FC080910201FD
:10F4A00080958093020180E090E0E0EDF7E03197F5
:10F4B000F1F70196883C9105C1F78091C00087FF64
:10F4C000EDCF1092020151C08FEF809304010FC065
:10F4D0008091050180958093050180E090E0E0ED4A
:10F4E000F7E03197F1F70196883C9105C1F78091DB
:10F4F000C00087FFEDCF1092050137C08FEF8093DA
:10F5000007010FC08091080180958093080180E079
:10F5100090E0E0EDF7E03197F1F70196883C910536
:10F52000C1F78091C00087FFEDCF109208011DC088
:10F530008FEF80930A010FC080910B01809580931B
:10F540000B0180E090E0E0EDF7E03197F1F70196F4
:10F55000883C9105C1F78091C00087FFEDCF1092E4
:10F560000B0103C085E292EEEEC98091C00087FFD7
:10F57000FCCF8091C600EAC988E392EEE4C98CE131
:10F5800091EEE1C988249924933011F1943028F444
:10F59000913089F09230B8F408C0953061F195301F
:10F5A000F0F0963009F048C043C02B3109F042C951
:10F5B00091E06BE13FC96227C15DDE4F2883CF52E6
:10F5C000D14092E037C9B22FA0E0622793E032C960
:10F5D000822F90E0A82BB92B622794E02BC92E3004
:10F5E00009F039C3622795E0C05DDE4F19821882A9
:10F5F000C053D1401FC9E1E0F0E0EC0FFD1FC05D3A
:10F60000DE4F08811981C053D140E00FF11F2083E4
:10F610000F5F1F4FC05DDE4F19830883C053D14079
:10F6200062270A171B0709F005C9D80196E002C92D
:10F63000261709F010C303C0973009F0FBC87724E0
:10F640009981933109F412C19431C8F4963009F4C8
:10F65000D8C0973050F4923009F406C1933009F4C1
:10F660006DC0913009F059C253C0913109F477C08F
:10F67000923108F0BBC0903109F04FC2F5C098310B
:10F6800009F487C0993150F4953109F4EFC09531F0
:10F6900008F4C6C1963109F040C2C2C19A3109F4DA
:10F6A0006CC09A3108F491C09B3109F45BC09D3164
:10F6B00009F033C29D81903359F48F81882311F46E
:10F6C0009EE11CC0813011F091E018C098E916C08D
:10F6D000892F807591F0903539F4E0E0F0E089E011
:10F6E0008093570094910AC0983539F4E3E0F0E034
:10F6F00089E080935700949101C090E01A821B82A8
:10F700008D818C831D829E831F8227E030E009C299
:10F710001A8288E08B8381E48C8386E58D8382E581
:10F720008E8389E48F8383E5888780E589878FE5E9
:10F730008A8782E38B872BE030E0F3C18A818139AD
:10F7400041F0823941F0803911F48FE005C080E04A
:10F7500003C082E001C08AE01A828B8344C0772410
:10F76000739482C08D81882311F48EE12CC0813086
:10F7700011F081E028C088E926C01A82E1E0F0E0BB
:10F7800089E08093570084918B831C8224E030E0D1
:10F79000C8C18B81803589F48C81883039F4E2E0EE
:10F7A000F0E089E08093570084910DC0E0E0F0E044
:10F7B00089E080935700849106C0E3E0F0E089E09F
:10F7C0008093570084911A82DFCF8D81836C99E0FA
:10F7D000E1E0F0E0082E90935700E89507B600FCB2
:10F7E000FDCF1A821B8223E030E09BC180EC8A832C
:10F7F000CE5CDE4F188219821A821B82C253D1401E
:10F800008EC18A8190E0A0E0B0E0582F44273327D2
:10F8100022278B8190E0A0E0B0E0DC0199278827C7
:10F82000282B392B4A2B5B2B8D8190E0A0E0B0E098
:10F83000282B392B4A2B5B2B8C8190E0A0E0B0E089
:10F84000BA2FA92F982F8827282B392B4A2B5B2BCF
:10F85000220F331F441F551FC05EDE4F288339839C
:10F860004A835B83C052D1401A8259C13A81C95C34
:10F87000DE4F3883C753D140CA5CDE4F1882C6536F
:10F88000D1408B81C82EDD24CA5CDE4F488159816E
:10F89000C653D140C42AD52A933109F082C0CE5C28
:10F8A000DE4F88819981AA81BB81C253D1408050AB
:10F8B000904CA340B04030F583E0CE5CDE4FE88052
:10F8C000F9800A811B81C253D140F70100935B008C
:10F8D00080935700E89507B600FCFDCFCE5CDE4F65
:10F8E000088119812A813B81C253D14000501F4FAA
:10F8F0002F4F3F4FCE5CDE4F088319832A833B8313
:10F90000C253D140C05EDE4F488159816A817B81FC
:10F91000C052D140DE011B9631E08C9111962C91A2
:10F9200011971296C75CDE4F2883C953D140C85C3B
:10F93000DE4F1882C853D14090E0C85CDE4FE881AA
:10F94000F981C853D1408E2B9F2B0C01FA01609393
:10F950005B0030935700E89511244E5F5F4F6F4F67
:10F960007F4F0EEFE02E0FEFF02ECE0CDF1CC114F8
:10F97000D10499F685E0C05EDE4F088119812A81A5
:10F980003B81C052D140F80120935B008093570027
:10F99000E89507B600FCFDCF81E180935700E8951C
:10F9A00035C0C05EDE4F88819981AA81BB81C0527B
:10F9B000D140B695A795979587957C018601ABE0D8
:10F9C000AA2EB12CAC0EBD1E0BC0D5016D915D01F0
:10F9D000C7010F947FFE0894E11CF11C01501040F8
:10F9E0000115110591F7A60160E070E0440F551F65
:10F9F000661F771FC05EDE4FE880F9800A811B8199
:10FA0000C052D1404E0D5F1D601F711F1A82C05E33
:10FA1000DE4F488359836A837B83C052D1407FC0C5
:10FA2000FA80C55CDE4FF882CB53D140C65CDE4F16
:10FA30001882CA53D1408B81C82EDD24C65CDE4FAC
:10FA400008811981CA53D140C02AD12A1A828981DA
:10FA5000BE016D5F7F4F843121F59601C05EDE4FA0
:10FA6000E880F9800A811B81C052D1400BBFF701A9
:10FA700087919691DB018C9311969C936E5F7F4FDB
:10FA8000D801C7010296A11DB11DC05EDE4F88835B
:10FA90009983AA83BB83C052D14022503040F1F6F3
:10FAA00036C0C05EDE4F288139814A815B81C052F9
:10FAB000D1400894C108D108760100E010E0089414
:10FAC000C11CD11C0894E11CF11C011D111DE20E8A
:10FAD000F31E041F151F21BDBB27A52F942F832FB5
:10FAE00082BD2F5F3F4F4F4F5F4FF89A80B5DB01CC
:10FAF0008D93BD012E153F054007510761F7C05E8C
:10FB0000DE4F288339834A835B83C052D1409601FC
:10FB10002D5F3F4FFB01108204C080EC8A8322E0FE
:10FB200030E08BE18093C6008091C00086FFFCCF5F
:10FB30008091C00080648093C000C15DDE4FF88179
:10FB4000CF52D140F093C6008091C00086FFFCCF19
:10FB50008091C00080648093C000432F3093C60022
:10FB60008091C00086FFFCCF8091C00080648093AC
:10FB7000C000922F2093C6008091C00086FFFCCF6A
:10FB80008091C00080648093C0008EE08093C600A6
:10FB90008091C00086FFFCCF8091C000806480937C
:10FBA000C00065E1C15DDE4FE880CF52D1406E25D7
:10FBB00069276427FE01319610C090819093C6009A
:10FBC0008091C00086FFFCCF31968091C000806498
:10FBD0008093C0006927215030402115310569F715
:10FBE0006093C6008091C00086FFFCCF8091C0006A
:10FBF00080648093C00085B1805885B9772081F4F6
:10FC0000C15DDE4F0881CF52D1400F5FC15DDE4F35
:10FC10000883CF52D14090E0A0E0B0E00D941AF4F8
:10FC200027982F9880E090E020ED37E0F901319798
:10FC3000F1F7019684369105C9F700008091C00064
:10FC40008D7F8093C00081E180935700E895EE2777
:10FC5000FF270994FFCF90E00D941AF497FB092E2B
:10FC600007260AD077FD04D02ED006D000201AF443
:10FC7000709561957F4F0895F6F7909581959F4F08
:10FC80000895A1E21A2EAA1BBB1BFD010DC0AA1FDD
:10FC9000BB1FEE1FFF1FA217B307E407F50720F0F5
:10FCA000A21BB30BE40BF50B661F771F881F991F70
:10FCB0001A9469F760957095809590959B01AC01B9
:10FCC000BD01CF010895AA1BBB1B51E107C0AA1FAC
:10FCD000BB1FA617B70710F0A61BB70B881F991FED
:10FCE0005A95A9F780959095BC01CD010895F99991
:10FCF000FECF92BD81BDF89A992780B50895262F31
:10FD0000F999FECF1FBA92BD81BD20BD0FB6F89400
:0EFD1000FA9AF99A0FBE01960895F894FFCF63
:00000001FF
